{
  "contractName": "Trade",
  "abi": [
    {
      "inputs": [],
      "stateMutability": "nonpayable",
      "type": "constructor"
    },
    {
      "inputs": [],
      "name": "buyer",
      "outputs": [
        {
          "internalType": "address",
          "name": "",
          "type": "address"
        }
      ],
      "stateMutability": "view",
      "type": "function"
    },
    {
      "inputs": [],
      "name": "owner",
      "outputs": [
        {
          "internalType": "address payable",
          "name": "",
          "type": "address"
        }
      ],
      "stateMutability": "view",
      "type": "function"
    },
    {
      "inputs": [],
      "name": "price",
      "outputs": [
        {
          "internalType": "uint256",
          "name": "",
          "type": "uint256"
        }
      ],
      "stateMutability": "view",
      "type": "function"
    },
    {
      "inputs": [
        {
          "internalType": "uint256",
          "name": "_price",
          "type": "uint256"
        }
      ],
      "name": "setPrice",
      "outputs": [],
      "stateMutability": "nonpayable",
      "type": "function"
    },
    {
      "inputs": [],
      "name": "pay",
      "outputs": [],
      "stateMutability": "payable",
      "type": "function"
    },
    {
      "inputs": [],
      "name": "getBalance",
      "outputs": [
        {
          "internalType": "uint256",
          "name": "",
          "type": "uint256"
        }
      ],
      "stateMutability": "view",
      "type": "function"
    },
    {
      "inputs": [],
      "name": "withdraw",
      "outputs": [],
      "stateMutability": "payable",
      "type": "function"
    }
  ],
  "bytecode": "0x608060405234801561001057600080fd5b50336000806101000a81548173ffffffffffffffffffffffffffffffffffffffff021916908373ffffffffffffffffffffffffffffffffffffffff160217905550610742806100606000396000f3fe6080604052600436106100705760003560e01c80637150d8ae1161004e5780637150d8ae146100b45780638da5cb5b146100df57806391b7f5ed1461010a578063a035b1fe1461013357610070565b806312065fe0146100755780631b9265b8146100a05780633ccfd60b146100aa575b600080fd5b34801561008157600080fd5b5061008a61015e565b60405161009791906105f6565b60405180910390f35b6100a86101f5565b005b6100b2610290565b005b3480156100c057600080fd5b506100c9610387565b6040516100d69190610580565b60405180910390f35b3480156100eb57600080fd5b506100f46103ad565b604051610101919061059b565b60405180910390f35b34801561011657600080fd5b50610131600480360381019061012c9190610484565b6103d1565b005b34801561013f57600080fd5b50610148610469565b60405161015591906105f6565b60405180910390f35b60008060009054906101000a900473ffffffffffffffffffffffffffffffffffffffff1673ffffffffffffffffffffffffffffffffffffffff163373ffffffffffffffffffffffffffffffffffffffff16146101ef576040517f08c379a00000000000000000000000000000000000000000000000000000000081526004016101e6906105b6565b60405180910390fd5b47905090565b6002543414610239576040517f08c379a0000000000000000000000000000000000000000000000000000000008152600401610230906105d6565b60405180910390fd5b6000479050348161024a9190610622565b905033600160006101000a81548173ffffffffffffffffffffffffffffffffffffffff021916908373ffffffffffffffffffffffffffffffffffffffff16021790555050565b60008054906101000a900473ffffffffffffffffffffffffffffffffffffffff1673ffffffffffffffffffffffffffffffffffffffff163373ffffffffffffffffffffffffffffffffffffffff161461031e576040517f08c379a0000000000000000000000000000000000000000000000000000000008152600401610315906105b6565b60405180910390fd5b60008054906101000a900473ffffffffffffffffffffffffffffffffffffffff1673ffffffffffffffffffffffffffffffffffffffff166108fc479081150290604051600060405180830381858888f19350505050158015610384573d6000803e3d6000fd5b50565b600160009054906101000a900473ffffffffffffffffffffffffffffffffffffffff1681565b60008054906101000a900473ffffffffffffffffffffffffffffffffffffffff1681565b60008054906101000a900473ffffffffffffffffffffffffffffffffffffffff1673ffffffffffffffffffffffffffffffffffffffff163373ffffffffffffffffffffffffffffffffffffffff161461045f576040517f08c379a0000000000000000000000000000000000000000000000000000000008152600401610456906105b6565b60405180910390fd5b8060028190555050565b60025481565b60008135905061047e816106f5565b92915050565b60006020828403121561049657600080fd5b60006104a48482850161046f565b91505092915050565b6104b68161068a565b82525050565b6104c581610678565b82525050565b60006104d8602183610611565b91507f4f6e6c79206f776e65722063616e2063616c6c20746869732066756e6374696f60008301527f6e000000000000000000000000000000000000000000000000000000000000006020830152604082019050919050565b600061053e600e83610611565b91507f76616c7565206e6f742073616d650000000000000000000000000000000000006000830152602082019050919050565b61057a816106bc565b82525050565b600060208201905061059560008301846104bc565b92915050565b60006020820190506105b060008301846104ad565b92915050565b600060208201905081810360008301526105cf816104cb565b9050919050565b600060208201905081810360008301526105ef81610531565b9050919050565b600060208201905061060b6000830184610571565b92915050565b600082825260208201905092915050565b600061062d826106bc565b9150610638836106bc565b9250827fffffffffffffffffffffffffffffffffffffffffffffffffffffffffffffffff0382111561066d5761066c6106c6565b5b828201905092915050565b60006106838261069c565b9050919050565b60006106958261069c565b9050919050565b600073ffffffffffffffffffffffffffffffffffffffff82169050919050565b6000819050919050565b7f4e487b7100000000000000000000000000000000000000000000000000000000600052601160045260246000fd5b6106fe816106bc565b811461070957600080fd5b5056fea264697066735822122026f1ea3feaaf703a345649736758e5d0fa36200cb6700cf2de26b54ec8dc1f2064736f6c63430008000033",
  "immutableReferences": {},
  "source": "//SPDX-License-Identifier: UNLICENSED\npragma solidity >=0.5.0 <0.9.0;\ncontract Trade{\n    address  payable public owner;\n    address public buyer;\n    uint public price;\n\n    constructor() {\n        owner=payable(msg.sender);\n    }\n\n    \n    function setPrice(uint _price) public {\n        require(msg.sender==owner,\"Only owner can call this function\");\n        price=_price;\n        \n    }\n   \n   \n   \n\n function pay()external payable{\n    require(msg.value==price,\"value not same\");\n    uint a=address(this).balance;\n    a+=msg.value;\n    buyer=msg.sender;\n   \n }\n\nfunction getBalance() public view returns (uint){\n    require(msg.sender==owner,\"Only owner can call this function\");\n        return address(this).balance;\n    }\n   \n   function withdraw() public payable  {\n        require(msg.sender==owner,\"Only owner can call this function\");\n        owner.transfer(address(this).balance);\n    }\n\n}\n    ",
  "sourcePath": "C:\\Users\\harshita saxena\\OneDrive\\Desktop\\Lab2\\contracts\\Trade.sol",
  "compiler": {
    "name": "solc",
    "version": "0.8.0+commit.c7dfd78e.Emscripten.clang"
  },
  "schemaVersion": "3.4.4",
  "updatedAt": "2022-07-13T15:26:41.725Z",
  "devdoc": {
    "kind": "dev",
    "methods": {},
    "version": 1
  },
  "userdoc": {
    "kind": "user",
    "methods": {},
    "version": 1
  }
}